:020000040800F2
:1000000050150020210300089B05000893050008F7
:1000100097050008490400080507000800000000D3
:100020000000000000000000000000003502000891
:100030004D04000800000000BD0200080D03000888
:100040003B0300083B0300083B0300083B03000898
:100050003B0300083B0300083B0300083B03000888
:100060003B0300083B0300083B0300083B03000878
:100070003B0300083B0300083B0300083B03000868
:100080003B0300083B0300083B0300083B03000858
:100090003B0300083B0300083B0300083B03000848
:1000A0003B0300083B0300083B0300083B03000838
:1000B0003B0300083B0300083B0300083B03000828
:1000C0003B0300083B0300083B0300083B03000818
:1000D0003B0300083B0300083B0300083B03000808
:1000E0003B0300083B0300083B0300083B030008F8
:1000F0003B0300083B0300083B0300083B030008E8
:100100003B0300083B0300083B0300083B030008D7
:100110003B0300083B0300083B0300083B030008C7
:100120003B0300083B0300083B0300083B030008B7
:1001300000F002F800F03AF80AA090E8000C8244BF
:100140008344AAF10107DA4501D100F02FF8AFF29C
:10015000090EBAE80F0013F0010F18BFFB1A43F0A5
:10016000010318476410000084100000103A24BFF7
:1001700078C878C1FAD8520724BF30C830C144BF0C
:1001800004680C607047000000230024002500264E
:10019000103A28BF78C1FBD8520728BF30C148BFEA
:1001A0000B6070471FB51FBD10B510BD00F0DFF824
:1001B0001146FFF7F7FF00F019FB00F0FDF803B45C
:1001C000FFF7F2FF03BC00F001F9000080F309889B
:1001D0007047EFF309807047684680F30988044848
:1001E0000078C00714BF0220032080F314887047F2
:1001F000AC110008DFF818C0EFF305831B0618BF29
:100200006047EFF31483DB0708BF604700DF7047E8
:1002100049080008DFF818C0EFF305831B0618BF74
:100220006047EFF31483DB0708BF604700DF7047C8
:10023000F1090008EFF30980816911F8021C39BB4C
:1002400090E80F10E047EFF3098C194B93E8060094
:10025000914218D059B10CB44FF0010381F8263007
:100260002CE9F00FC1F82CC000F038FE0CBC1A606D
:10027000D2F82CC0BCE8F00F92F826308CF3098835
:100280001BB192F82500CCF800006FF0020E704709
:1002900010B5084A1268914209D8074C54F8214019
:1002A00090E80F10A047EFF3098C8CE80F0010BD09
:1002B0000C000020DC030008DC03000800F026FD31
:1002C000114B93E8060091421BD00CB44FF0000391
:1002D00081F82630EFF3098C2CE9F00FC1F82CC01F
:1002E00000F0FCFD0CBC1A60D2F82CC0BCE8F00F8A
:1002F0008CF3098892F826301BB192F82530CCF89F
:1003000000306FF0020E70470C00002000F0B6FEC7
:10031000D6E7000000F096FA00F0B0FED0E700004B
:100320000948804709480047FEE7FEE7FEE7FEE789
:10033000FEE7FEE7FEE7FEE7FEE7FEE704480549C5
:10034000054A064B70470000A50600083101000869
:10035000500F002050150020501100205011002097
:1003600000487047EC0E0020704770477047754694
:10037000FFF7F6FFAE4605006946534620F007003A
:10038000854618B020B5FFF7D9FFBDE820404FF0F3
:1003900000064FF000074FF000084FF0000B21F06F
:1003A0000701AC46ACE8C009ACE8C009ACE8C0093C
:1003B000ACE8C0098D46704710B50446AFF3008025
:1003C0002046BDE81040FFF7FABE000001491820A2
:1003D000ABBEFEE7260002007047000000000000F0
:1003E0000EE0012007490860C820DFF81CC000DFCC
:1003F00000200649C1F8B401C820DFF80CC000DFB6
:10040000EFE70000B40122429D09000800002242EB
:100410000023084A48F201010748DFF820C000DF46
:100420000749086004E04FF41670DFF818C000DFD9
:10043000F9E7000038010020E1030008FD10000882
:10044000000000209D09000800BFFEE77047000083
:1004500008B50121102000F0A1F84FF40050ADF8CC
:10046000000003208DF8020010208DF8030069467B
:10047000014800F003F808BD001001402DE9F041EB
:10048000024600250026002000230024002791F8C2
:1004900003C00CF00F0591F803C00CF0100CBCF178
:1004A000000F03D091F802C04CEA050591F800C096
:1004B000BCF1000F31D0146800202BE04FF0010C8C
:1004C0000CFA00F3B1F800C00CEA03069E4220D1FA
:1004D00083004FF00F0C0CFA03F7BC4305FA03FC42
:1004E0004CEA040491F803C0BCF1280F06D14FF088
:1004F000010C0CFA00FCC2F814C00AE091F803C029
:10050000BCF1480F05D14FF0010C0CFA00FCC2F809
:1005100010C0401C0828D1D31460B1F800C0BCF151
:10052000FF0F34DD546800202EE000F1080C4FF07E
:10053000010808FA0CF3B1F800C00CEA03069E4269
:1005400021D183004FF00F0C0CFA03F7BC4305FADE
:1005500003FC4CEA040491F803C0BCF1280F05D158
:1005600000F1080C08FA0CF8C2F8148091F803C0E6
:10057000BCF1480F07D100F1080C4FF0010808FA50
:100580000CF8C2F81080401C0828CED35460BDE897
:10059000F08100BFFEE700BFFEE7704729B1064AC1
:1005A00092690243044B9A6104E0034A92698243D0
:1005B000014B9A61704700000010024010B500F036
:1005C00001F810BD0CB50020019000903348006880
:1005D00040F480303149086000BF3048006800F4C2
:1005E000003000900198401C0190009818B90198C3
:1005F000B0F5A06FF1D12948006800F4003010B1C7
:100600000120009001E0002000900098012843D1D3
:100610002348006840F0100021490860084600683F
:1006200020F0030008600846006840F002000860FF
:100630001A484068194948600846406848600846BA
:10064000406840F4806048600846406820F47C10B0
:1006500048600846406840F4E81048600846006872
:1006600040F08070086000BF0C48006800F0007027
:100670000028F9D00948406820F003000749486085
:100680000846406840F00200486000BF03484068E8
:1006900000F00C000828F9D10CBD00000010024049
:1006A0000020024010B51348006840F001001149D5
:1006B000086008464068104908400E4948600846EE
:1006C00000680E4908400B4908600846006820F49D
:1006D000802008600846406820F4FE0048604FF41F
:1006E0001F008860FFF76AFF4FF000600449086050
:1006F00010BD0000001002400000FFF8FFFFF6FEF2
:1007000008ED00E000BFFEE710B5002A06DA22F08F
:100710000042D21D22F00703102203E0D21C22F077
:1007200003030C2213B19C188C4201D9012010BD87
:10073000024401448360C0E90021C91AD0188842EC
:1007400002D810600246F9E70020106010BD0000DA
:1007500010B5044600F01AFD002805D04FF6FF71D1
:10076000DFF808C0206800DF10BD0000A50C0008FD
:1007700010B5044600F00AFD002803D0DFF808C0D9
:10078000206800DF10BD0000C10B000808480068A9
:10079000C0010BD507480068C00707D0054880385E
:1007A0000068002802DA0449012008707047000040
:1007B000FCED00E0800E00E0180000204FF06042E9
:1007C000D36F002BFCD0436BD367D36F002BFCD0CF
:1007D000C07840EA0120A2F87C0070474FF06041E9
:1007E000CA6F002AFCD081F87C007047FFF730FE0A
:1007F000FFF7F2FC034A04490448DFF814C000DFA5
:1008000000BFFEE7380000200200010011040008CC
:10081000290F000800BFFEE700BFFEE70748016898
:100820004FF0E0204161002181610721016104480E
:10083000016841F07F41016040177047A81100082E
:1008400020ED00E07047704750E8001F31B10B68A1
:1008500040E80032002AF7D108467047BFF32F8FD7
:10086000FAE7000070B50D46002812D04FF6FF7170
:10087000084C884204D222680146104600F084FAEF
:1008800020684570044800F0C3F8BDE8704000F0EF
:1008900037BB70BD0C000020BC0E00200F4810B507
:1008A0000D4942680E480B680068934204D00A6004
:1008B000CB88421E1A448A808A8880B282420AD13A
:1008C00000200860054800F0A3F80146BDE810408C
:1008D000024800F07DBA10BD24000020BC0E0020AC
:1008E0001400002070B51A4DE86800282ED0A88AA0
:1008F000401EA882002623E0A06838B161684160EC
:10090000606810B1A16881606660A66010482146E9
:10091000183800F05DFAA08AA8826078042804D113
:100920000C49E08A09880844A0820120607084F89C
:100930002500E068E860E06808B10561E6602661CE
:10094000A88A002802D1EC68002CD5D170BD000027
:10095000D40E00201400002070B504000FD00D4DFF
:10096000A17801262868827891420CD900F04CFACF
:10097000286846702046BDE8704000F0C1BA0648BD
:1009800000F046F8F7E766702146BDE8704002487F
:1009900000F01EBA0C000020BC0E00200321FFF75F
:1009A00061BF000010B50446008B084320836278C5
:1009B000618B062A16D0052A17D1084215D001EA04
:1009C0000002628388432083204600F041FA012020
:1009D0006070022084F825002146BDE810400348DD
:1009E00000F0F6B931EA0002ECD010BDBC0E0020D8
:1009F000814202D342688A4201D80120704750E800
:100A0000002F0A6040E80012002AF8D10020704749
:100A10000146406842684A600B780022022B05D0EC
:100A2000012B03D0032B01D04260704743680BB108
:100A3000996042608260704770B504460020154698
:100A4000207001226270A17084F824106060A060A0
:100A5000E06020612062A082E0822083608384F8CD
:100A6000250084F82600208D18B90548FFF7ECFE14
:100A7000206329462046BDE8704000F00FB8000012
:100A80001803002003480021016003490988C18040
:100A90007047000024000020A411000810B5028D4A
:100AA000920803D10F4A1288C2F38D02036B03EB45
:100AB0008202530700D5121F4FF0807342E90213E0
:100AC00000231C46B2F1400242F823405B1C0E2B6F
:100AD000FAD3C3691362C2624163006B02490160C9
:100AE00010BD0000A0110008A52E5AE22DE9F0412A
:100AF000044640680F464FF0000804F10C0620B190
:100B0000617802291DD0A089E8B3A089E1898842D3
:100B10004ED2208904EB8000C0F81070D6E85F0F39
:100B2000401C81B2C6E8501F0028F7D12089401C24
:100B300080B22081E189884201D1A4F80880BDE813
:100B4000F081406800B1012060702046FFF760FF2F
:100B500080F825802289054604EB8202C06941465F
:100B6000C2F81000D6E85F0F401C82B2C6E8502FD2
:100B70000028F7D12089401C80B22081E289904270
:100B80000BD1218109E0FFE72046FFF741FF054631
:100B9000C0690421076085F8251001206870284687
:100BA00000F056F92946BDE8F041044800F010B9BC
:100BB000BDE8F0410320FFF72DBE0000BC0E002071
:100BC0002DE9F0470446408820B1344DA1682A68D9
:100BD000914202D0FF20BDE8F087401E0004000CC7
:100BE000608059D12968086AA04209D1E06808628A
:100BF00008E0C268A24202D1E268C26002E0104688
:100C00000028F6D191F824000A6A06E053681BB167
:100C10009B78834200D91846D268002AF6D18870A2
:100C2000DFF87C8061689146012741B32046FFF7D9
:100C3000EFFE0646052086F82500304600F008F94C
:100C40006780A660306AE06034622968D8F80400E2
:100C50008A788078824201D330460AE0104800F05A
:100C6000B7F831460E4800F0B3F82868477077703F
:100C700010E0FFF771FE296881F825900CE0D8F8A4
:100C800004108A782968824206D9054800F0A0F845
:100C9000286847700020ECE700209CE70C0000204B
:100CA000BC0E002070B5184D0E46044641882868D9
:100CB00039B1A168814209D16088401C6080002060
:100CC00070BDA060016AE1600462F5E776B18A78E0
:100CD0008078824203D28870A06800F09FF8606834
:100CE00030B12046296800F073F808E0012070BD9B
:100CF00028686060296800204860286884600921AD
:100D00003046FFF7AFFDF1E70C00002070B51B483F
:100D1000012102685170006800F076F8184D6C7877
:100D200018E000BF05EBC40148680278EAB1012A67
:100D300020D000F0B9F8E878641C844200D1002487
:100D40000F48801CD0E84F1F491EC9B2C0E8421F9F
:100D5000002AF7D1A8780028E4D16C700948FFF781
:100D600057FEBDE8704000F0CBB8098989B2FFF7A3
:100D700019FEE0E78968FFF7B9FEDCE70C00002008
:100D8000280B0020BC0E0020104A10B5D368ABB170
:100D900013469B8A03E08CB12246A48A2344D4687C
:100DA0008B42F8D3C460D0600261C46804B1206192
:100DB000591A8182908A401A908210BD0024C46022
:100DC000D060C91A02619182848210BDD40E0020C5
:100DD00030B502780023022A03D0012A01D0032A69
:100DE00000D101238C7800E01046426812B195785A
:100DF000A542F9D24A6041601BB102B1916088609E
:100E000030BD0020FBE7000003494A684260002231
:100E10008260486070470000BC0E002010B58368F7
:100E200004462BB9607801280ED1084B03E09B687B
:100E300018780028FBD0204600F01EF82146BDE8B7
:100E400010401846FFF7C4BF10BD0000BC0E0020C4
:100E500010B5016900290ED0C268CA60C3680022BB
:100E60003BB18B8A848A23448B82C3681961C26038
:100E700000E08A82026110BD816839B142684A602F
:100E80004168002901D0806888607047054906E004
:100E90004A68824202D14068486070471146002982
:100EA000F6D17047BC0E002010B5416879B1FFF74C
:100EB000AFFD0446FFF7CCFF01206070032084F8EB
:100EC00025002146BDE810400348FFF781BF418857
:100ED000491C418010BD0000BC0E0020064800687F
:100EE000D0E90B10814203D300680449884202D044
:100EF0000120FFF78FBC70470C000020A52E5AE29E
:100F00000749022248604270064A1278002A05D03A
:100F100006C98A4202D0C078FFF760BC7047000063
:100F20000C000020180000202DE9F04716468846E6
:100F30008146FFF72BFC002004463E4A3E4902E072
:100F400042F82040401C0B889842F9D33B48382295
:100F500001883B48FFF7D8FB3A48008880B240F050
:100F60000042394801683948FFF7CEFB384808226B
:100F7000018838480068FFF7C7FB374FFF25374A1D
:100F8000FD703C8500213846FFF756FD34480421AA
:100F90000170446033480170C46004618482F86A5F
:100FA0002030FFF713F9304831490760022078708C
:100FB0002E48047044700978C170FFF763FD2D4816
:100FC000016841F47F0101600068290601EA002000
:100FD0002849C0431439B0FA80F00968C0F108000C
:100FE000C1F30221814200DB481C2249091F0B6822
:100FF0006FF08072824063F317020A60FFF70EFC05
:101000001D49002808600DDB00F1E02181F8005443
:1010100000F01F02012191404011800000F1E0200A
:10102000C0F80011324641464846BDE8F04700236B
:1010300000F064B8AC0B00209C110008B811000847
:10104000B8010020A0110008BC11000818030020FE
:10105000C211000804000020840E002019080008B6
:10106000BC0E0020D40E00200C000020280B002015
:10107000C011000820ED00E0200000200C4810B551
:101080000268012151700068FFF7BEFEFFF706FC01
:1010900008480168491C0160FFF724FC00F00EF8C5
:1010A0000548FFF7B5FCBDE81040FFF729BF000079
:1010B0000C00002014000020BC0E002070B50D4C68
:1010C0002068002815D0A0880B4E401EA0800AE0A2
:1010D000E888FFF7B8FBA888A08028682060294628
:1010E0003068FFF785FCA088002802D12568002D14
:1010F000EED170BD2C000020040000202DE9F0414D
:101100001E46174680460C4611F0FF0F00D14C1CBE
:101110001948FFF799FB05002BD0200A2F6328857B
:10112000E1B242462846EE61FFF786FC01241348EF
:10113000134905E000EB840252F8042C22B1641C30
:101140000A889442F6D9002400EB8400E6B240F805
:10115000045C0C48EE70007818B101212846FFF7B6
:101160002DFB2846FFF7F8FB0748006880F825604C
:101170002046BDE8F0810000B8010020AC0B002043
:101180009C110008180000200C0000200248006894
:10119000002800D0C07870470C0000200600000036
:1011A00000020301050001003F19010000000000DA
:1011B000E8030000000000005C01000010080000CF
:1011C000100000004B000400E8110008000000209F
:1011D000340000006C0100081C12000834000020DC
:1011E0001C1500008801000800000000000000003D
:1011F00000000000000000000000000000000000EF
:1012000000000000000000000000000000000000DE
:0C121000000000000000000000000000D2
:0400000508000131BD
:00000001FF
