:020000040800F2
:10000000C81800209902000807070008AF0600087A
:1000100003070008BD0300081F0D000800000000D2
:10002000000000000000000000000000AD0100081A
:10003000690500080000000035020008850200087C
:10004000B3020008B3020008B3020008B3020008BC
:10005000B3020008B3020008B3020008B3020008AC
:10006000B3020008B3020008B3020008B30200089C
:10007000B3020008B3020008B3020008B30200088C
:10008000B3020008B3020008B3020008B30200087C
:10009000B3020008B3020008B3020008B30200086C
:1000A000B3020008B3020008B3020008B30200085C
:1000B000B3020008B3020008B3020008B30200084C
:1000C000B3020008B3020008B3020008B30200083C
:1000D000B3020008B3020008490A0008B30200088E
:1000E000B3020008B3020008B3020008B30200081C
:1000F000B3020008B3020008B3020008B30200080C
:10010000B3020008B3020008B3020008B3020008FB
:10011000B3020008B3020008B3020008B3020008EB
:10012000B3020008B3020008B3020008B3020008DB
:10013000DFF80CD000F0C2F8004800472D0F00088F
:10014000C818002080F309887047EFF309807047D2
:10015000684680F3098804480078C00714BF02206D
:10016000032080F314887047C4180008DFF818C013
:10017000EFF305831B0618BF6047EFF31483DB071B
:1001800008BF604700DF7047B10F0008DFF818C0F4
:10019000EFF305831B0618BF6047EFF31483DB07FB
:1001A00008BF604700DF704795110008EFF3098032
:1001B000816911F8021C39BB90E80F10E047EFF39A
:1001C000098C194B93E80600914218D059B10CB430
:1001D0004FF0010381F826302CE9F00FC1F82CC054
:1001E00001F0B4F90CBC1A60D2F82CC0BCE8F00FD6
:1001F00092F826308CF309881BB192F82500CCF8D0
:1002000000006FF0020E704710B5084A1268914264
:1002100009D8074C54F8214090E80F10A047EFF39D
:10022000098C8CE80F0010BD28000020E0020008B7
:10023000E002000801F096F8114B93E806009142A5
:100240001BD00CB44FF0000381F82630EFF3098C7B
:100250002CE9F00FC1F82CC001F078F90CBC1A6041
:10026000D2F82CC0BCE8F00F8CF3098892F8263045
:100270001BB192F82530CCF800306FF0020E7047B9
:100280002800002001F032FAD6E7000000F08EFED0
:1002900001F02CFAD0E700000648804706480047E6
:1002A000FEE7FEE7FEE7FEE7FEE7FEE7FEE7FEE726
:1002B000FEE7FEE7E909000831010008064C074D9A
:1002C00006E0E06840F0010394E807009847103426
:1002D000AC42F6D3FFF730FFE01800080019000821
:1002E000000000000EE0012007490860C820DFF888
:1002F0001CC000DF00200649C1F8B401C820DFF8A7
:100300000CC000DFEFE70000B40122420511000835
:100310000000224200230C4A0C490D48DFF834C08B
:1003200000DF0D49086000230C4A0849891C0C486D
:10033000DFF820C000DF0B49086004E04FF41670BE
:10034000DFF824C000DFF9E75002002001000200BE
:10035000E50200086D17000800000020500400208E
:100360006D030008040000200511000814E00122BC
:100370000A211046DFF824C000DF0446012C09D012
:10038000022C08D106A000F0CDFC0A490AA000F01A
:10039000C9FC00E000BF00BFE9E7000059110008F8
:1003A000476574207561727432204D7367210D0AA0
:1003B00000000000500600202573200000BFFEE76B
:1003C00021B1026842F00102026004E002684FF6C7
:1003D000FE731A400260704701684FF6FE721140CA
:1003E00001600021016041608160C1604B49884229
:1003F00008D14A490839496841F00F01474A083A8B
:1004000051608AE045491431884208D1434908398E
:10041000496841F0F001414A083A51607DE03F49A6
:100420002831884208D13D490839496841F4706152
:100430003A4A083A516070E038493C31884208D164
:1004400036490839496841F47041344A083A5160E4
:1004500063E032495031884208D13049083949684F
:1004600041F470212D4A083A516056E02B4964311D
:10047000884208D129490839496841F47001274A5E
:10048000083A516049E025497831884208D123492A
:100490000839496841F07061204A083A51603CE0EF
:1004A0001F49884206D1011F096841F00F01021F50
:1004B000116032E01A491431884208D11849091FE5
:1004C000096841F0F001164A121F116025E0144935
:1004D0002831884208D11249091F096841F4706126
:1004E0000F4A121F116018E00D493C31884208D1B3
:1004F0000B49091F096841F47041094A121F116034
:100500000BE007495031884207D10549091F0968A6
:1005100041F47021024A121F116070470800024026
:10052000080402400146486880B2704710B50022B6
:10053000026847F6F0739A430C6A8B6823430C6990
:1005400023434C6923438C692343CC6923434C6A7E
:1005500023438C6A23431A430260CB6843600B68D1
:1005600083604B68C36010BD7047000008B501216F
:10057000102000F03BF94FF40050ADF800000320CC
:100580008DF8020010208DF803006946014800F044
:1005900003F808BD001001402DE9F0410246002596
:1005A0000026002000230024002791F803C00CF04F
:1005B0000F0591F803C00CF0100CBCF1000F03D034
:1005C00091F802C04CEA050591F800C0BCF1000F9B
:1005D00031D0146800202BE04FF0010C0CFA00F32E
:1005E000B1F800C00CEA03069E4220D183004FF010
:1005F0000F0C0CFA03F7BC4305FA03FC4CEA0404A5
:1006000091F803C0BCF1280F06D14FF0010C0CFA91
:1006100000FCC2F814C00AE091F803C0BCF1480F16
:1006200005D14FF0010C0CFA00FCC2F810C0401CC0
:100630000828D1D31460B1F800C0BCF1FF0F34DD3D
:10064000546800202EE000F1080C4FF0010808FA71
:100650000CF3B1F800C00CEA03069E4221D18300DE
:100660004FF00F0C0CFA03F7BC4305FA03FC4CEAFD
:10067000040491F803C0BCF1280F05D100F1080C67
:1006800008FA0CF8C2F8148091F803C0BCF1480FC6
:1006900007D100F1080C4FF0010808FA0CF8C2F875
:1006A0001080401C0828CED35460BDE8F08100BF04
:1006B000FEE7F0B58BB007460C4615461E460121F5
:1006C000084600F063F83846FFF786FE009401956F
:1006D0000020029003960490802005900020069050
:1006E000079008904FF44050099000200A90694606
:1006F0003846FFF71BFF01213846FFF761FE0BB0BC
:10070000F0BD00BFFEE7704770B5002100230F2247
:10071000C47804B3154C246804F4E064C4F5E064C0
:10072000210AC1F10403CA40447804FA03F1847831
:100730001440214309010E4C0678A155047804F0B9
:100740001F050124AC4005786D11AD0005F1E025D1
:10075000C5F8004109E0047804F01F050124AC400D
:10076000044D0678761145F8264070BD0CED00E08A
:1007700000E400E080E100E002490143024A116028
:10078000704700000000FA050CED00E029B1064AB0
:1007900052690243044B5A6104E0034A526982439E
:1007A000014B5A61704700000010024029B1064A0F
:1007B000D2690243044BDA6104E0034AD2698243FE
:1007C000014BDA61704700000010024029B1064A6F
:1007D00012690243044B1A6104E0034A126982431E
:1007E000014B1A61704700000010024029B1064A0F
:1007F00092690243044B9A6104E0034A926982437E
:10080000014B9A61704700000010024029B1064A6E
:10081000D2680243044BDA6004E0034AD2688243A0
:10082000014BDA60704700000010024030B5002133
:100830000022002400232D4D6D6805F00C0121B12C
:10084000042905D0082923D105E0294D056022E0BF
:10085000274D05601FE0254D6D6805F47012234D8E
:100860006D6805F48034022505EB92421CB9214DD8
:10087000554305600BE01D4D6D6805F400351DB155
:100880001C4D5543056002E0194D5543056002E0DB
:10089000174D056000BF00BF144D6D6805F0F001F5
:1008A0000909154D6B5C0568DD4045600F4D6D68AD
:1008B00005F4E061090A104D6B5C4568DD40856018
:1008C0000A4D6D6805F46051C90A0B4D6B5C4568B3
:1008D000DD40C560054D6D6805F44041890B074D4D
:1008E0006B5CC568B5FBF3F5056130BD00100240D7
:1008F00000127A0000093D000C0000201C000020BE
:1009000010B500F001F810BD0CB50020019000906A
:100910003348006840F480303149086000BF3048F7
:10092000006800F4003000900198401C019000988D
:1009300018B90198B0F5A06FF1D12948006800F40A
:10094000003010B10120009001E0002000900098DC
:10095000012843D12348006840F010002149086075
:100960000846006820F0030008600846006840F070
:10097000020008601A484068194948600846406803
:1009800048600846406840F4806048600846406817
:1009900020F47C1048600846406840F4E810486045
:1009A0000846006840F08070086000BF0C4800688E
:1009B00000F000700028F9D00948406820F00300DA
:1009C000074948600846406840F00200486000BFA0
:1009D0000348406800F00C000828F9D10CBD000065
:1009E000001002400020024010B51348006840F09B
:1009F00001001149086008464068104908400E4946
:100A00004860084600680E4908400B4908600846DF
:100A1000006820F4802008600846406820F4FE004A
:100A200048604FF41F008860FFF76AFF4FF00060D6
:100A30000449086010BD0000001002400000FFF8EB
:100A4000FFFFF6FE08ED00E010B540F2244110482B
:100A500000F0A1F8D8B10F48FFF764FDC0F5806041
:100A60000D4908804FF480630C4A0949091D094863
:100A7000FFF71FFE00200949074A128888540448DE
:100A800000F044F906480168012000F03BFA10BD6F
:100A9000004400406C00024022000020500600206C
:100AA0000400002001F40072B2F5007F00D100BF05
:100AB000CA430280704721B1828942F40052828188
:100AC00004E082894DF6FF731A40828170471AB1A3
:100AD000838A0B43838202E0838A8B43838270473D
:100AE00010B504462048844209D101218803FFF74C
:100AF0008DFE00214FF48040FFF788FE32E01B4856
:100B0000844209D101214804FFF760FE00214FF41F
:100B10000030FFF75BFE25E01548844209D1012132
:100B20008804FFF753FE00214FF48020FFF74EFEAC
:100B300018E01048844209D10121C804FFF746FE9D
:100B400000214FF40020FFF741FE0BE00A488442E9
:100B500008D101210805FFF739FE00214FF480106C
:100B6000FFF734FE10BD0000003801400044004093
:100B700000480040004C0040005000400246002069
:100B8000B1F5007F00D100BF13880B400BB10120ED
:100B900000E00020704770B50246002400230025C5
:100BA000002040F66A16B14200D100BFC1F34215E1
:100BB00001F01F03012606FA03F3012D02D19689E5
:100BC000334006E0022D02D1168A334001E0968AB6
:100BD00033400C12012606FA04F41688344013B18F
:100BE0000CB1012000E0002070BDF0B503460024E8
:100BF00000260025002040F66A17B94200D100BF48
:100C00001846C1F3421401F01F06012707FA06F542
:100C1000012C01D10C3004E0022C01D1103000E095
:100C200014301AB107682F43076002E00768AF432A
:100C30000760F0BD2DE9F04786B005460E4600245A
:100C4000A24600BFA1460027B08900B100BF2F46D1
:100C50002C8A4CF6FF700440F08804432C82AC8947
:100C60004EF6F3100440B088318908437189084377
:100C70000443AC81AC8A4FF6FF400440B089044382
:100C8000AC8201A8FFF7D2FD1F48874202D1DDF8F0
:100C900010A001E0DDF80CA0A88900F4004040B1EC
:100CA0000AEBCA0000EB0A1031684900B0FBF1F80A
:100CB00007E00AEBCA0000EB0A1031688900B0FBBC
:100CC000F1F86420B8FBF0F004012009642101FB75
:100CD0001089A88900F4004040B1322000EBC9001F
:100CE000B0FBF1F000F00700044308E0322000EB15
:100CF00009106421B0FBF1F000F00F0004432C81D7
:100D000006B0BDE8F0870000003801400146888841
:100D1000C0F308007047C1F308028280704700BF2B
:100D2000FEE700000FB4054B10B503A9044A029872
:100D300000F03AF810BC5DF814FB0000E10E00086A
:100D40002400002002E008C8121F08C1002AFAD1BE
:100D500070477047002001E001C1121F002AFBD13B
:100D6000704710B5002A06DA22F00042D21D22F0A8
:100D70000703102203E0D21C22F003030C2213B15C
:100D80009C188C4201D9012010BD024401448360AB
:100D9000C0E90021C91AD018884202D81060024662
:100DA000F9E70020106010BD2DE9F84F99469246F2
:100DB00088460546002706E025280AD051464A46BF
:100DC00090476D1C7F1C28780028F5D13846BDE877
:100DD000F88F002315F8011F18462E2915D115F894
:100DE000011F04232A290DD06FF02F022978A1F1C9
:100DF0003004092C09D800EB800002EB40000844C5
:100E00006D1CF3E758F8040B6D1C2A78002ADDD01E
:100E1000632A07D0732A0FD0104651464A4690479E
:100E20007F1C2AE018F8042B8DF8002000218DF893
:100E300001106E46012103E058F8046B4FF0FF31BA
:100E40005A074FF0000401D409E0641C84420BDA15
:100E50008C42FADB325D002AF7D105E0641C8C423B
:100E6000FCDB305D0028F9D1274404E016F8010BC3
:100E700051464A469047641EF8D26D1CA3E7000015
:100E800008480068C0010BD507480068C00707D0B4
:100E9000054880380068002802DA044901200870FB
:100EA00070470000FCED00E0800E00E03400002000
:100EB0004FF06042D36F002BFCD0436BD367D36FEE
:100EC000002BFCD0C07840EA0120A2F87C007047DB
:100ED0004FF06041CA6F002AFCD081F87C00704757
:100EE00070B504460D46E1B20548FFF714FF00BF98
:100EF00040210348FFF742FE0028F9D0204670BD8C
:100F0000004400400A460146074810B500EB820045
:100F100050F8040C002805D000F072FABDE810402B
:100F200000F05EBA10BD0000441400204FF4407081
:100F3000FFF722FCFFF71AFB4FF4E13000F05EFCF4
:100F40004FF48063074A08490848FFF7B2FBFFF7F0
:100F5000FFF8074A4FF002110648DFF81CC000DF17
:100F600000BFFEE750060020044400406C00024031
:100F700050000020150300089915000800BFFEE787
:100F800000BFFEE7074801684FF0E0204161002103
:100F90008161072101610448016841F07F410160DE
:100FA00040177047C018000820ED00E070477047F8
:100FB00050E8001F31B10B6840E80032002AF7D139
:100FC00008467047BFF32F8FFAE7000070B50D4653
:100FD000002812D04FF6FF71084C884204D22268D4
:100FE0000146104600F03AFA20684570044800F0C7
:100FF000E1F8BDE8704000F0BBBA70BD28000020E9
:10100000941400200F4810B50D4942680E480B6833
:101010000068934204D00A60CB88421E1A448A803A
:101020008A8880B282420AD100200860054800F018
:10103000C1F80146BDE81040024800F033BA10BDC7
:1010400040000020941400203000002070B51A4D9C
:10105000E86800282ED0A88A401EA882002623E037
:10106000A06838B161684160606810B1A1688160B2
:101070006660A66010482146183800F013FAA08A6E
:10108000A8826078042804D10C49E08A09880844C1
:10109000A0820120607084F82500E068E860E068C4
:1010A00008B10561E6602661A88A002802D1EC68D3
:1010B000002CD5D170BD0000AC1400203000002001
:1010C00070B504000FD00D4DA178012628688278F4
:1010D00091420CD900F002FA286846702046BDE81B
:1010E000704000F045BA064800F064F8F7E7667013
:1010F0002146BDE87040024800F0D4B92800002025
:10110000941400200321FFF761BF000010B50446CE
:10111000008B084320836278618B062A16D0052A4B
:1011200017D1084215D001EA000262838843208368
:10113000204600F0DDF901206070022084F82500CF
:101140002146BDE81040034800F0ACB931EA000286
:10115000ECD010BD9414002070B503460C480D4629
:101160000468208B42B133EA000101D0062109E076
:1011700098432083022070BD10EA030101D06183EF
:10118000F6E7052163832846FFF720FF012070BDA5
:1011900028000020814202D342688A4201D80120FF
:1011A000704750E8002F0A6040E80012002AF8D18A
:1011B000002070470146406842684A600B78002270
:1011C000022B05D0012B03D0032B01D042607047C6
:1011D00043680BB1996042608260704770B5044605
:1011E00000201546207001226270A17084F824103E
:1011F0006060A060E06020612062A082E0822083C5
:10120000608384F8250084F82600208D18B90548ED
:10121000FFF7CEFE206329462046BDE8704000F06F
:101220000FB80000B00B0020034800210160034903
:101230000988C1807047000040000020BC180008E9
:1012400010B5028D920803D10F4A1288C2F38D02A5
:10125000036B03EB8202530700D5121F4FF080731C
:1012600042E9021300231C46B2F1400242F8234037
:101270005B1C0E2BFAD3C3691362C2624163006B1D
:101280000249016010BD0000B8180008A52E5AE2FE
:101290002DE9F041044640680F464FF0000804F184
:1012A0000C0620B1617802291DD0A089E8B3A0897D
:1012B000E18988424ED2208904EB8000C0F810708A
:1012C000D6E85F0F401C81B2C6E8501F0028F7D156
:1012D0002089401C80B22081E189884201D1A4F894
:1012E0000880BDE8F081406800B1012060702046B0
:1012F000FFF760FF80F825802289054604EB820213
:10130000C0694146C2F81000D6E85F0F401C82B2A7
:10131000C6E8502F0028F7D12089401C80B22081D8
:10132000E28990420BD1218109E0FFE72046FFF7D7
:1013300041FF0546C0690421076085F8251001209A
:101340006870284600F0D4F82946BDE8F04104480A
:1013500000F0A8B8BDE8F0410320FFF70FBE000081
:101360009414002070B51B48012102685170006878
:1013700000F0B4F8184D6C7818E000BF05EBC4011C
:1013800048680278EAB1012A20D000F0C5F8E87870
:10139000641C844200D100240F48801CD0E84F1FF9
:1013A000491EC9B2C0E8421F002AF7D1A878002818
:1013B000E4D16C700948FFF7FDFEBDE8704000F015
:1013C000D7B8098989B2FFF7A1FEE0E78968FFF77E
:1013D0005FFFDCE728000020C013002094140020E9
:1013E0000548017811B101214170704703494FF060
:1013F00080500860704700003800002004ED00E0D5
:10140000F0B4154DAB1CEE784FEA0507D3E84F2F2B
:10141000B24202D1BFF32F8F11E0521CD4B2C3E805
:10142000424F002AF2D100BFD7E84F2F541CB442DC
:1014300000D10024E4B2C7E8434F002BF4D1EB788D
:10144000934205D905EBC202C2E90101F0BC704725
:10145000F0BC0220FFF792BDC0130020104A10B567
:10146000D368ABB113469B8A03E08CB12246A48AB1
:101470002344D4688B42F8D3C460D0600261C4684E
:1014800004B12061591A8182908A401A908210BD5D
:101490000024C460D060C91A02619182848210BDA8
:1014A000AC14002030B502780023022A03D0012AB0
:1014B00001D0032A00D101238C7800E01046426855
:1014C00012B19578A542F9D24A6041601BB102B1D0
:1014D0009160886030BD0020FBE7000003494A6846
:1014E000426000228260486070470000941400202F
:1014F00010B5016900290ED0C268CA60C368002215
:101500003BB18B8A848A23448B82C3681961C26091
:1015100000E08A82026110BD10B5416879B1FFF721
:1015200049FE0446FFF7E4FF01206070032084F8C1
:1015300025002146BDE810400348FFF7B3BF4188AE
:10154000491C418010BD000094140020064800682A
:10155000D0E90B10814203D300680449884202D0CD
:101560000120FFF70BBD704728000020A52E5AE28E
:101570000749022248604270064A1278002A05D0C4
:1015800006C98A4202D0C078FFF7A2BC70470000AB
:1015900028000020340000202DE9F0471646884638
:1015A0008146FFF76DFC002004463E4A3E4902E0BA
:1015B00042F82040401C0B889842F9D33B4838221F
:1015C00001883B48FFF7CDFB3A48008880B240F0E5
:1015D0000042394801683948FFF7C3FB3848082200
:1015E000018838480068FFF7BCFB374FFF25374AB2
:1015F000FD703C8500213846FFF7F0FD344804219A
:101600000170446033480170C46004618482F86AE8
:101610002030FEF797FD304831490760022078708E
:101620002E48047044700978C170FFF7FDFD2D4805
:10163000016841F47F0101600068290601EA002089
:101640002849C0431439B0FA80F00968C0F1080095
:10165000C1F30221814200DB481C2249091F0B68AB
:101660006FF08072824063F317020A60FFF78AFC12
:101670001D49002808600DDB00F1E02181F80054CD
:1016800000F01F02012191404011800000F1E02094
:10169000C0F80011324641464846BDE8F0470023F5
:1016A00000F064B844140020B4180008D0180008F2
:1016B000500A0020B8180008D4180008B00B002009
:1016C000DA180008080000205C140020810F0008D0
:1016D00094140020AC14002028000020C013002027
:1016E000D818000820ED00E03C0000200C4810B5A0
:1016F0000268012151700068FFF7F0FEFFF782FCDD
:1017000008480168491C0160FFF7A0FC00F00EF8D2
:101710000548FFF74FFDBDE81040FFF729BF000067
:1017200028000020300000209414002070B50D4CDB
:101730002068002815D0A0880B4E401EA0800AE02B
:10174000E888FFF734FCA888A08028682060294634
:101750003068FFF71FFDA088002802D12568002D02
:10176000EED170BD48000020080000202DE9F041B6
:101770001E46174680460C4611F0FF0F00D14C1C48
:101780001948FFF715FC05002BD0200A2F63288588
:10179000E1B242462846EE61FFF720FD01241348DE
:1017A000134905E000EB840252F8042C22B1641CBA
:1017B0000A889442F6D9002400EB8400E6B240F88F
:1017C000045C0C48EE70007818B101212846FFF740
:1017D0006FFB2846FFF774FC0748006880F8256017
:1017E0002046BDE8F0810000500A0020441400208B
:1017F000B4180008340000202800002010B586B07E
:10180000044601210520FEF7F1FF01214804FEF7FF
:10181000CDFF2648FFF764F90420ADF8140003203B
:101820008DF8160018208DF8170005A92048FEF73E
:10183000B3FE0820ADF8140004208DF8170005A9A8
:101840001B48FEF7A9FE01940020ADF80800ADF892
:101850000A00ADF80C00ADF810000C20ADF80E0039
:1018600026208DF8000000208DF8020001208DF860
:1018700003006846FEF748FF01A90C48FFF7DAF9B4
:10188000012240F224410948FFF7AFF9012240212B
:101890000648FFF71CF901210448FFF70CF940F254
:1018A00064410248FFF7FEF806B010BD0044004056
:1018B00000080140060000000002030105000100CD
:1018C0003F19010000000000E803000000000000D4
:1018D0005C01000010080000100000004B00040034
:1018E000001900080000002050000000440D00080E
:1018F000501900085000002078180000540D00080E
:1019000000000000000000000000000000000000D7
:101910000102030401020304060708090204060881
:1019200000000000000000000000000000000000B7
:1019300000000000000000000000000000000000A7
:101940000000000000000000000000000000000097
:0400000508000131BD
:00000001FF
